:100000000C9461000C947E000C947E000C947E0095
:100010000C947E000C947E000C947E000C947E0068
:100020000C947E000C947E000C947E000C947E0058
:100030000C947E000C947E000C947E000C947E0048
:100040000C94EC000C947E000C947E000C947E00CA
:100050000C947E000C947E000C947E000C947E0028
:100060000C947E000C947E00000000002400270009
:100070002A0000000000250028002B0000000000DE
:1000800023002600290004040404040404040202DA
:100090000202020203030303030301020408102007
:1000A0004080010204081020010204081020000012
:1000B0000007000201000003040600000000000029
:1000C000000011241FBECFEFD8E0DEBFCDBF11E08E
:1000D000A0E0B1E0E0E7F5E002C005900D92AC30A1
:1000E000B107D9F711E0ACE0B1E001C01D92A53134
:1000F000B107E1F70E9480020C94B6020C94000054
:10010000EF92FF920F931F937C0189E060E00E94C1
:100110002C0288E061E00E942C02C7016AE070E0D6
:100120000E948F02FB0100E011E0E00FF11F8081CF
:100130008BB961E070E080E090E00E94340188E0DB
:1001400060E00E942C0289E061E00E942C02C7015D
:100150006AE070E00E948F02080F191FF801808189
:100160008BB961E070E080E090E00E9434011F9163
:100170000F91FF90EF9008950F931F938EE00E94D0
:10018000CB0164E070E00E948F028B01CB010E94E2
:100190008000053111051CF08FE061E002C08FE0A6
:1001A00060E00E942C021F910F9108951F9380E040
:1001B0000E94C8018EE060E00E94ED0110E0812FF6
:1001C00061E00E94ED011F5F1A30C9F78FE061E026
:1001D0000E94ED011F9108951F920F920FB60F928A
:1001E00011242F933F938F939F93AF93BF9380914D
:1001F000100190911101A0911201B0911301309161
:1002000014010196A11DB11D232F2D5F2D3720F064
:100210002D570196A11DB11D20931401809310014B
:1002200090931101A0931201B093130180910C01DE
:1002300090910D01A0910E01B0910F010196A11DA9
:10024000B11D80930C0190930D01A0930E01B0930A
:100250000F01BF91AF919F918F913F912F910F907F
:100260000FBE0F901F9018959B01AC017FB7F894BB
:1002700080910C0190910D01A0910E01B0910F01A0
:1002800066B5A89B05C06F3F19F00196A11DB11D71
:100290007FBFBA2FA92F982F8827860F911DA11DE8
:1002A000B11D62E0880F991FAA1FBB1F6A95D1F785
:1002B000BC012DC0FFB7F89480910C0190910D0105
:1002C000A0910E01B0910F01E6B5A89B05C0EF3FCC
:1002D00019F00196A11DB11DFFBFBA2FA92F982FAC
:1002E00088278E0F911DA11DB11DE2E0880F991F77
:1002F000AA1FBB1FEA95D1F7861B970B885E934018
:10030000C8F2215030404040504068517C4F211588
:1003100031054105510571F60895789484B58260E0
:1003200084BD84B5816084BD85B5826085BD85B599
:10033000816085BDEEE6F0E0808181608083E1E848
:10034000F0E0108280818260808380818160808380
:10035000E0E8F0E0808181608083E1EBF0E0808183
:1003600084608083E0EBF0E0808181608083EAE755
:10037000F0E08081846080838081826080838081DE
:10038000816080838081806880831092C10008959D
:1003900080930A010895982F8E3008F09E50977030
:1003A00080910A018295880F880F807C892B809329
:1003B0007C0080917A00806480937A0080917A003A
:1003C00086FDFCCF2091780040917900942F80E049
:1003D00030E0282B392BC9010895CF93DF93482FA4
:1003E00050E0CA0186569F4FFC0134914A575F4F37
:1003F000FA018491882369F190E0880F991FFC012C
:10040000E859FF4FA591B491FC01EE58FF4FC591FB
:10041000D491662351F42FB7F8948C91932F909533
:1004200089238C93888189230BC0623061F42FB7B4
:10043000F8948C91932F909589238C938881832BAA
:1004400088832FBF06C09FB7F8948C91832B8C9321
:100450009FBFDF91CF910895482F50E0CA01825588
:100460009F4FFC012491CA0186569F4FFC01949135
:100470004A575F4FFA013491332309F440C02223D5
:1004800051F1233071F0243028F42130A1F02230D2
:1004900011F514C02630B1F02730C1F02430D9F462
:1004A00004C0809180008F7703C0809180008F7D91
:1004B0008093800010C084B58F7702C084B58F7D93
:1004C00084BD09C08091B0008F7703C08091B000D7
:1004D0008F7D8093B000E32FF0E0EE0FFF1FEE580A
:1004E000FF4FA591B4912FB7F894662321F48C9116
:1004F0009095892302C08C91892B8C932FBF0895EE
:10050000CF93DF930E948D010E94D600C0E0D0E01F
:100510000E94BC002097E1F30E940000F9CF97FBF6
:10052000092E07260AD077FD04D00CD006D0002073
:100530001AF4709561957F4F0895F6F7909581951F
:100540009F4F0895AA1BBB1B51E107C0AA1FBB1FE9
:10055000A617B70710F0A61BB70B881F991F5A954F
:10056000A9F780959095BC01CD010895F894FFCF2F
:0C057000C0F9A4B0999282F880900100BC
:00000001FF
