:100000000C945C000C9479000C9479000C947900A9
:100010000C9479000C9479000C9479000C9479007C
:100020000C9479000C9479000C9479000C9479006C
:100030000C9479000C9479000C9479000C9479005C
:100040000C9439010C9479000C9479000C9479008B
:100050000C9479000C9479000C9479000C9479003C
:100060000C9479000C947900000000080002010053
:100070000003040700000000000000000102040863
:100080001020408001020408102001020408102002
:10009000040404040404040402020202020203032E
:1000A0000303030300000000250028002B000000CC
:1000B0000000240027002A0011241FBECFEFD8E043
:1000C000DEBFCDBF11E0A0E0B1E0E8E6F5E002C0A0
:1000D00005900D92AE30B107D9F721E0AEE0B1E066
:1000E00001C01D92A931B207E1F70E94A2020C944F
:1000F000B2020C94000061E080910C010E94320277
:1001000061E080910A010E94320261E08091080161
:100110000E94320261E0809106010E94320261E099
:10012000809104010E94320261E0809102010E94EC
:10013000320261E0809100010E94320261E0809110
:100140000E010C9432024F925F926F927F928F92C7
:100150009F92AF92BF92CF92DF92EF92FF920F9356
:100160001F93CF93DF938CE0682E81E0782E61E0BF
:10017000F30180810E946B029AE0892E91E0992E12
:1001800061E0F40180810E946B0228E0A22E21E050
:10019000B22E61E0F50180810E946B0236E0C32E31
:1001A00031E0D32E61E0F60180810E946B0244E0D1
:1001B000E42E41E0F42E61E0F70180810E946B02A1
:1001C00002E011E061E0F80180810E946B02C0E072
:1001D000D1E061E088810E946B025EE0452E51E033
:1001E000552E61E0F20180810E946B0264E670E0AE
:1001F00080E090E00E94A60160E0F30180810E940F
:100200006B0260E0F40180810E946B0260E0F50106
:1002100080810E946B0260E0F60180810E946B0287
:1002200060E0F70180810E946B0260E0F80180814C
:100230000E946B0260E088810E946B0260E0F20124
:1002400080810E946B0264E670E080E090E0DF91C4
:10025000CF911F910F91FF90EF90DF90CF90BF90C3
:10026000AF909F908F907F906F905F904F900C9485
:10027000A6011F920F920FB60F9211242F933F9356
:100280008F939F93AF93BF9380911101909112012F
:10029000A0911301B09114013091100123E0230FBC
:1002A0002D3720F40196A11DB11D05C026E8230FAE
:1002B0000296A11DB11D209310018093110190930E
:1002C0001201A0931301B093140180911501909134
:1002D0001601A0911701B09118010196A11DB11D41
:1002E0008093150190931601A0931701B093180104
:1002F000BF91AF919F918F913F912F910F900FBE22
:100300000F901F9018953FB7F89480911501909128
:100310001601A0911701B091180126B5A89B05C040
:100320002F3F19F00196A11DB11D3FBF6627782F01
:10033000892F9A2F620F711D811D911D42E0660F5A
:10034000771F881F991F4A95D1F70895CF92DF92A2
:10035000EF92FF92CF93DF936B017C010E948301A8
:10036000EB01C114D104E104F10489F00E94B1024F
:100370000E9483016C1B7D0B683E734090F381E00B
:10038000C81AD108E108F108C851DC4FEACFDF9163
:10039000CF91FF90EF90DF90CF900895789484B53F
:1003A000826084BD84B5816084BD85B5826085BD71
:1003B00085B5816085BDEEE6F0E080818160808357
:1003C000E1E8F0E01082808182608083808181603A
:1003D0008083E0E8F0E0808181608083E1EBF0E001
:1003E000808184608083E0EBF0E0808181608083A5
:1003F000EAE7F0E08081846080838081826080838E
:100400008081816080838081806880831092C100B8
:100410000895833081F028F4813099F08230A1F082
:1004200008958730A9F08830B9F08430D1F48091F4
:1004300080008F7D03C0809180008F778093800043
:10044000089584B58F7702C084B58F7D84BD0895EB
:100450008091B0008F7703C08091B0008F7D809332
:10046000B0000895CF93DF9390E0FC01E458FF4F74
:100470002491FC01E057FF4F8491882349F190E0DB
:10048000880F991FFC01E255FF4FA591B4918C553F
:100490009F4FFC01C591D4919FB7611108C0F8949A
:1004A0008C91209582238C93888182230AC06230AC
:1004B00051F4F8948C91322F309583238C9388815A
:1004C000822B888304C0F8948C91822B8C939FBFDD
:1004D000DF91CF9108950F931F93CF93DF931F92D6
:1004E000CDB7DEB7282F30E0F901E859FF4F8491EE
:1004F000F901E458FF4F1491F901E057FF4F0491BF
:100500000023C9F0882321F069830E9409026981D0
:10051000E02FF0E0EE0FFF1FEC55FF4FA591B491D7
:100520009FB7F8948C91611103C01095812301C08D
:10053000812B8C939FBF0F90DF91CF911F910F91D3
:10054000089508950E94CE010E94A1020E947B009E
:10055000C0E0D0E00E94A3002097E1F30E940000D9
:08056000F9CF0895F894FFCFD4
:0E056800010002000300040005000600070069
:00000001FF
